{"abi":[{"type":"constructor","inputs":[{"name":"_aaveLendingPool","type":"address","internalType":"address"}],"stateMutability":"nonpayable"},{"type":"function","name":"aaveLendingPool","inputs":[],"outputs":[{"name":"","type":"address","internalType":"contract IAaveLendingPool"}],"stateMutability":"view"},{"type":"function","name":"getReserveData","inputs":[{"name":"_asset","type":"address","internalType":"address"}],"outputs":[{"name":"unbacked","type":"uint256","internalType":"uint256"},{"name":"accruedToTreasuryScaled","type":"uint256","internalType":"uint256"},{"name":"totalAToken","type":"uint256","internalType":"uint256"},{"name":"totalStableDebt","type":"uint256","internalType":"uint256"},{"name":"totalVariableDebt","type":"uint256","internalType":"uint256"},{"name":"liquidityRate","type":"uint256","internalType":"uint256"},{"name":"variableBorrowRate","type":"uint256","internalType":"uint256"},{"name":"stableBorrowRate","type":"uint256","internalType":"uint256"},{"name":"averageStableBorrowRate","type":"uint256","internalType":"uint256"},{"name":"liquidityIndex","type":"uint256","internalType":"uint256"},{"name":"variableBorrowIndex","type":"uint256","internalType":"uint256"},{"name":"lastUpdateTimestamp","type":"uint40","internalType":"uint40"}],"stateMutability":"view"}],"bytecode":{"object":"0x608060405234801561001057600080fd5b5060405161032038038061032083398101604081905261002f91610054565b600080546001600160a01b0319166001600160a01b0392909216919091179055610084565b60006020828403121561006657600080fd5b81516001600160a01b038116811461007d57600080fd5b9392505050565b61028d806100936000396000f3fe608060405234801561001057600080fd5b50600436106100365760003560e01c806335ea6a751461003b578063e9d337b8146100b3575b600080fd5b61004e61004936600461018a565b6100de565b604080519c8d5260208d019b909b52998b019890985260608a0196909652608089019490945260a088019290925260c087015260e086015261010085015261012084015261014083015264ffffffffff16610160820152610180015b60405180910390f35b6000546100c6906001600160a01b031681565b6040516001600160a01b0390911681526020016100aa565b600080546040516335ea6a7560e01b81526001600160a01b038481166004830152839283928392839283928392839283928392839283929116906335ea6a759060240161018060405180830381865afa15801561013f573d6000803e3d6000fd5b505050506040513d601f19601f8201168201806040525081019061016391906101ba565b9b509b509b509b509b509b509b509b509b509b509b509b5091939597999b5091939597999b565b60006020828403121561019c57600080fd5b81356001600160a01b03811681146101b357600080fd5b9392505050565b6000806000806000806000806000806000806101808d8f0312156101dd57600080fd5b8c519b5060208d01519a5060408d0151995060608d0151985060808d0151975060a08d0151965060c08d0151955060e08d015194506101008d015193506101208d015192506101408d015191506101608d015164ffffffffff8116811461024357600080fd5b809150509295989b509295989b509295989b56fea2646970667358221220a13fbc3e502a6cb4d74f4397ba7644787d17fbb9f4279bc12baf32e6a89e9b9164736f6c63430008140033","linkReferences":{}},"methodIdentifiers":{"aaveLendingPool()":"e9d337b8","getReserveData(address)":"35ea6a75"},"id":20}